:020000040000fa
:080000000001040000000000f3
:020000040000fa
:100008009401000094010000940100009401000094
:100018009401000094010000940100009401000084
:100028009401000094010000940100007a0b000084
:100038009401000094010000940100009401000064
:10004800940100009401000094010000b20b00002c
:100058009401000094010000940100009401000044
:100068009401000094010000940100009401000034
:100078009401000094010000940100009401000024
:100088009401000094010000940100009401000014
:100098009401000094010000940100009401000004
:1000a80094010000940100009401000094010000f4
:1000b80094010000940100009401000094010000e4
:1000c80094010000940100009401000094010000d4
:1000d80094010000940100009401000094010000c4
:1000e80094010000940100009401000094010000b4
:0800f8009401000094010000d6
:020000040000fa
:100108009401000094010000940100009401000093
:100118009401000094010000940100009401000083
:100128009401000094010000940100007a0b000083
:100138009401000094010000940100009401000063
:10014800940100009401000094010000b20b00002b
:100158009401000094010000940100009401000043
:100168009401000094010000940100009401000033
:100178009401000094010000940100009401000023
:100188009401000094010000940100009401000013
:100198009401000094010000940100009401000003
:1001a80094010000940100009401000094010000f3
:1001b80094010000940100009401000094010000e3
:1001c80094010000940100009401000094010000d3
:1001d80094010000940100009401000094010000c3
:1001e80094010000940100009401000094010000b3
:0801f8009401000094010000d5
:020000040000fa
:100200004f9020000eff20000e018800000000002b
:1002100000012000200288000c00070020f32000cd
:100220000100200011000700000020000000e00095
:10023000020032000000020000000000d80c0200a2
:10024000000000000040da000000fe004440a90069
:10025000600e20000000e0000300320000002000db
:10026000a00188004440a800000006009101880019
:10027000800078000000eb0015003700e2804000ad
:1002800032a0b4009101ba00e280400032a0b40074
:100290009102ba00e280400032a0b4000002eb00fc
:1002a000472bde00f507b200602ce10004003a00a5
:1002b0000059eb008301e900fdff3e000400370018
:1002c0006128e100010032000082eb000400070019
:1002d0001101ba000200e000e8ff3a000000060049
:1002e0003159ba008301e9000c0032002159ba00eb
:1002f0008301e900080032000400e00003003a0036
:10030000e280400032a0b400f5ff370011d9ba00f6
:100310008301e900faff3a008100e800e180400033
:1003200032a0b400000006000040da000000fe0029
:100330000c00fa00889fbe0000047800f4ff27003c
:10034000d4bf9f008004eb0099bf9f0088bf9f002f
:10035000a8bf9f00240c2000b4bf9f0078815700e5
:10036000cfb0970070805700070007000fba9700c2
:10037000094a78000fba9700080052004f04be00e7
:100380000080fa00000006002f03b000889fbe0026
:100390008a9fbe008c9fbe008e1f7800e0af9f003a
:1003a000c1af9f00b2b79f008006eb006e0237001e
:1003b000cfa897008100e800c1af9f0054c2b300ee
:1003c000844f500006003a00010278000006eb005e
:1003d00001c3b30000c2b300b7c2b30007003700c7
:1003e0000000fb00efa897006b020700e10f400040
:1003f0005d0232008d06e8005b023700840278005f
:1004000034437800d2c2b300824f53000900320057
:1004100005003c00804f530008003200874f530016
:100420000c003a0007003700814f530009003a00e2
:10043000060037000c30a000f0ff37000c00a000d1
:10044000eeff37000c10a000ecff37000c20a000de
:10045000eaff370062026600010032000c00a100d2
:1004600068026600010032000c20a1000602fb00b9
:100470000403b100e90f52000c003e0005037800b0
:100480000002eb006a22b900b603fb000703b100cb
:1004900004824300860278009603fb000703b10044
:1004a000e98f5300f7ff3600080037000002eb0029
:1004b000a7c2b300874f530004003a00bfb19700b2
:1004c00043027800b3b79f008502e8000007eb0005
:1004d000e6c2b300954f13000a003a000ce0a000fa
:1004e00064435300d54f1300020032000503780027
:1004f000080037003fb3970046077800b6b79f0063
:100500008502e80005037800080037006a70b9002a
:100510000087430086027800b603fb000703b100a2
:10052000e98f5300f9ff3600f6ff3700b642780036
:10053000c6af9f00c0c6b30080cf52002500320076
:100540000f003c0036c6b30086cf52006e0032006a
:1005500004003c00e0cf5200080232006b4353001d
:100560000f00370046c6b30086cf52001700320096
:100570006543430086cf520083003a0013003700e2
:1005800036c7b30086cf52001f00320007003c0080
:100590006443530086cf5200140032000643e80043
:1005a00086cf520078003a001300370056c7b300d8
:1005b00086cf5200790032006343430086cf520059
:1005c00071003a00a5c79f000d003700a5c79f0026
:1005d00074003700f00366000501200001003200be
:1005e0000500280005067600d0ff3700a5c79f004c
:1005f0000c60a0006b003700a5c79f000c50a00046
:100600000c70a00067003700a5c79f00bfb097001f
:10061000c1027800b1b79f0005047800e08f520056
:1006200001003a00e88c2000080378008002eb000b
:10063000010037008502e800e6c37a00e0cf5300ee
:10064000fcff3a0085047800e00f570003003200f9
:10065000890f5700010031008e0478000007eb007d
:10066000890f520001003600090752006806660033
:1006700014003a0007003700efa89700000220009e
:10068000c5010700e10f4000010032008d06e800bf
:100690000e07e900e00f5700f7ff3a000087eb0074
:1006a00008003700080278003400fb0004047800da
:1006b000efa89700b8010700e10f400001003200e9
:1006c0008d06e800090278008404e900e00f52007a
:1006d000f4ff3a00e00f5600a30132000700370094
:1006e000efa8970000022000ab010700e10f4000d7
:1006f000010032008d06e8000e07e900e00f570008
:10070000f7ff3a00980137003fb19700c202780026
:10071000b2b79f0005007800cf80de0001017800ad
:1007200082017800f0af9f0081b79f0092b79f00d1
:10073000a3b79f004800de00c80add0000807200f9
:10074000a0c79f007003660009003200e04f500010
:1007500007003200e14f400005003200b0c79f00a3
:100760006fdb9700c6c79f002900200003003700f9
:10077000efdb9700b7c79f001900200038fc2f005f
:100780000f044400b0ff3700a5c79f0028fc2f00ce
:100790000f04440019002000abff3700a5c79f00dd
:1007a0000c0cb3008c027800050cb2002b003a0050
:1007b000e00f560005003d003fb097004005be0029
:1007c0004004be00b0b79f0017003700f00266007b
:1007d0000f003200bfb297004501be00b5b79f00c1
:1007e000c2a79f00d3a79f00050378009602900040
:1007f000cfaade00e5a79f00f5a79f004fa49700b2
:10080000dfa497006fa59700ffa5970006003700ab
:100810003fb0970040047800b0b79f00cfc4de001f
:10082000090578008a057800e00f5400e08f5c002d
:10083000e00f5d00e08f5d0025003d003c00b3004f
:100840006000b8006011b8000804500089845800a6
:100850000a0559008b8559001d003700e00f56002e
:1008600005003d00bfb097004105be004104be0039
:10087000b1b79f0016003700f00266000e0032008c
:10088000bfb297004501be00b5b79f0082af9f0081
:1008900093af9f000003eb00a6af9f008003eb0027
:1008a000b7af9f000fac97009fac97002fad97009c
:1008b000bfad9700060037003fb0970040047800b6
:1008c000b0b79f00090020000a0020000b002000a4
:1008d000e00f570007003a001e002000e00f540010
:1008e000e08f5c00e00f5d00e08f5d0001003200f2
:1008f0000007eb008c007800010cb200f1af9f0004
:1009000005042000858f50002c00320003003c00bd
:10091000e08f5000080032003c003700050820003e
:100920007fa99700850f510010003200050c2000b0
:10093000850f510035003a004681200015c0b300f4
:100940003600be003601be000040e10001c8e100f3
:1009500002d0e10003d8e1002b0039008542e80015
:10096000f4cf5200f6ff3a002700370015c0b3005d
:1009700000012000010020006011b8000040e100eb
:1009800001c8e10002d0e10003d8e1001e003900f7
:10099000460020000000d0008180d2000281d200f9
:1009a0008381d2000603e900faff3a008542e8009d
:1009b000f0cf5200f1ff3a001300370015c0b3002a
:1009c00080002000010020006011b8000040e1001c
:1009d00001c8e10002d0e10003d8e1000a003900bb
:1009e000370020000000d0008180d2000281d200b8
:1009f0008381d2008703e900faff3a008542e800cc
:100a0000f5cf5200f1ff3a00a5c79f002fc0970015
:100a10008002fb008e8f520002003d00aec79f0097
:100a200003003700850f570001003d0005077800df
:100a3000e00f520003003200e302660001003200c2
:100a40000402e9000500240085026600050032006a
:100a50008e0f5200020034000e02520001003700d7
:100a60000002eb002fc197008202fb008001eb0027
:100a7000d3af9f00850f5200020034008502520060
:100a8000d5af9f00640266002c003200e2026600cf
:100a900061026600e08f520006003200b0022000c2
:100aa000e00f5200010032000080e800efa897003c
:100ab00004003700e00f520006003200efa8970054
:100ac00000022000b4000700e10f400001003200e6
:100ad0008d06e8005faa9700e00f52008d003200fb
:100ae0000802be000a03be00dfac9700efa8970023
:100af00000032000c4b79f00d5b79f00e6b79f0052
:100b0000f7b79f00a40007004fb29700dfb297002d
:100b10006fb39700ffb39700e10f40000100320070
:100b20008d06e8008904e900f0ff3a00d9af9f0084
:100b30000605be000404be0076003700dfaa970059
:100b4000e08f5200180032006802660016003a007a
:100b50000802be000a03be00dfac9700efa89700b2
:100b600000022000c4b79f00d5b79f00e6b79f00e2
:100b7000f7b79f00880007004fb29700dfb29700d9
:100b80006fb39700ffb39700e10f40000100320000
:100b90008d06e8008904e900f0ff3a00d9af9f0014
:100ba0000605be000404be00e202660061026600a3
:100bb000e08f520006003200b0022000e00f520029
:100bc000010032000080e800efa897000400370021
:100bd000e00f52004f003200efa897000002200003
:100be0006d000700e10f40004a0032008d06e8006a
:100bf000480037000e07e9007fab9700070420008c
:100c0000870f53002d00320003003c00e00f53001b
:100c10000800320037003700040820007fae97003c
:100c2000840f560012003200040c2000840f56007e
:100c300030003a004372dd00c08020000002420014
:100c40005403be004402be000800be000a01be00fc
:100c5000b4010700a4002000050020006033b800a4
:100c6000b701070004c3b30004424000200037006e
:100c7000d48b2000bfa29700e08f52000100320009
:100c8000c48a2000c272dd000800be000a01be0056
:100c90008502e900050033008301d1000281d30001
:100ca0008180d3000080d300f9ff37006f0060001f
:100cb00064407800a0c79f000e0037006372b9003f
:100cc0000800be000a01be00040678000c06e90018
:100cd000050033008301d1000281d3008180d3005d
:100ce0000080d300f9ff3700674260000443b00082
:100cf000a4c79f00afc097000100fb00efa89700ba
:100d000025000700e10f4000060032008d06e800d4
:100d1000040037000c0178000202b200b2a79f0065
:100d20008cbf9f00e00f5700b2ff3a000fbe970044
:100d3000680666000c003200dfa99700e08f5100c2
:100d40000900340003067800efa897000002200095
:100d500011000700e10f4000010032008d06e8009d
:100d60000c06e900f8ff3a004faa970014407800fb
:100d7000a0c79f00e04f50008dfd3a000d007800a5
:100d80004f0778004f06be004f05be004f04be005f
:100d90002f03b10000000600889fbe000104780008
:100da00038029000e20262008084eb003b003200d7
:100db000040378000620b2009802900002003a0076
:100dc000e08f520035003a000490a00034049800ef
:100dd00080047800f90fb200e08f520002003a0060
:100de000a8029000050c7800ea8f540005003a0034
:100df0000408b20003003a0088007800d000200008
:100e0000e5ff070018029000d8029000850f5200fd
:100e10000b0032000402e800140498001802780065
:100e2000094a7800040ce80015c0b300c48f200004
:100e3000054a7800ea8f540018003a000500370090
:100e400088007800094078001700070080047800c7
:100e500012003700380290000410b2000f00320078
:100e600018019000a8009000480090005200070070
:100e700018029000840f50000400320038029000e5
:100e80000403b300340498008084eb000002eb00fc
:100e90001404980028029000040c780009007800df
:100ea0004f04be00000006000200fa00889fbe004a
:100eb000a0ff9f00010478003802900084027800af
:100ec0000504b200020032000000fb0035003700cc
:100ed000e202620005003a000403b3003404980003
:100ee000150498000080eb002e003700d804900015
:100ef000e08f540006003a0012002000e680570000
:100f0000480090002c0007001904980023003700c7
:100f1000a8029000e08f520008003a00f58f2000f0
:100f200025049800050c7800250020005504980041
:100f3000150498000430a0003404980018019000b3
:100f4000a8009000480090001b00070028029000b5
:100f50008082eb0015049800affa9700054a7800ec
:100f6000040ce8002ffa9700ea4f52000b003a00f9
:100f7000380290000410b2000800320018019000fe
:100f8000a8009000480090000b0007000002eb0052
:100f900014049800a8029000050c78002ffa97001e
:100fa0000400fb004f04be000080fa0000000600b1
:100fb00000c0da00000006000a00fa00e20f50004c
:100fc00022003e0014488000e10f5200060032006b
:100fd000e7212000a6212000842120006521200097
:100fe000e08f530004003a00472120000621200032
:100ff000e4202000c520200000002800150060002b
:1010000003003a00800b780007002800958a7300df
:10101000054020009482620001003a0014a0a00064
:101020008202780006003700940378000710b200af
:10103000fdff3200b103fb00070b78008502e900d9
:10104000e08f5200f8ff3a0008003700340020001b
:10105000b4bf9f00c0bf9f00d1bf9f00e2bf9f00f1
:101060006a805700d2ff07006fb99700020078002e
:101070000080fa0000000600889fbe008a9fbe0024
:101080003004be002005be000404440085844c00ea
:1010900006054d0087854d000898be000a90be00e9
:1010a0000440e10005c8e10006d0e10007d8e100f6
:1010b00002003100680040001008e8004f05be0043
:1010c0004f04be00000006001000fa00889fbe001a
:1010d0008a9fbe000605be000404be003002be00aa
:1010e0002003be00c4b79f00d5b79f00e6b79f009e
:1010f000f7b79f000802520089825a000a035b007a
:101100008b835b0084bf9f0095bf9f00a6bf9f009d
:10111000b7bf9f000498be000698be0011002000d3
:101120004fb29700dfb297006fb39700ffb39700fd
:101130000820e10009a8e1000ab0e1000bb8e100d5
:10114000010039008000eb00108810004f05be0040
:101150004f04be000080fa00000006001400fa00f0
:10116000889fbe008a9fbe008c9fbe003f00070084
:101170000605be000404be000006eb00ccb79f00cd
:10118000bcb79f00acb79f009cb79f008cb79f0077
:101190000d0420004fb39700bfb2970086034300b1
:1011a0002fb29700e00f530004003d003d00070000
:1011b0000f004000b0ff07000300370039000700b0
:1011c0000f004000c0ff0700cfb2970095bf9f00ff
:1011d000e08f5200090035002b00070014002000aa
:1011e000050020006033b8000000720081807200aa
:1011f00002017300838173001c0007000c06e800e5
:101200008d0f5600e3ff3a001fba9700e00f52001f
:1012100005003d000802be000a03be0000fe2f00cc
:101220000f00400094ff07004faa9700e00f520004
:1012300008003a000fb497009fb497002fb59700ad
:10124000bfb59700d8b79f00e9b79f00fab79f00d6
:101250008bbf9f000c0007004f06be004f05be006d
:101260004f04be000080fa000000060001000700e5
:101270000000060090b79f00a1b79f00b2b79f0083
:10128000c3b79f0000000600010007000000060031
:101290001fb09700afb097003fb19700cfb1970054
:1012a000000006004f2bde0087037300a7b79f00e6
:1012b0004f23de00858242008502730095b79f00b0
:1012c000ffaa97004f2bde000402420004027300c5
:1012d00084b79f006faa97004f23de0085824200eb
:1012e00085027300f5af9f00e9ff07004f18de008d
:1012f0000402420000027200e4af9f00e4ff070016
:1013000000004000818048000201490083814900bb
:10131000d8ff07000802be000a03be0000fe2f002f
:1013200000000600881f780018002000881f780041
:101330008aff07008f87e9004f047800000006004d
:10134000801feb0085ff07008f87e9000000060083
:10135000889fbe008a9fbe00e00f5000e08f5800bb
:10136000e00f5900e08f59000c003d006044b800c8
:101370006055b8000000540081805c0002015d00ef
:1013800083815d00180020001500070008003d0063
:10139000180007000004eb00050037000004eb0014
:1013a0000f00070002003d00120007001800200097
:1013b000dcff0700e00f5400060032006022b80096
:1013c0006033b8000000520081805a0002015b00c7
:1013d00083815b004f05be004f04be000000060085
:1013e000e00f5200e08f5a00e00f5b00e08f5b00df
:1013f000000006006044b8006055b80004025400c4
:1014000085825c0006035d0087835d0000000600a6
:10141000889fbe008a9fbe008c1f7800e00f50009e
:10142000e08f5800e00f5900e08f59000d003d009b
:101430006044b8006055b8000000540081805c0032
:1014400002015d0083815d001c0020000820e10096
:1014500009a8e1000ab0e1000bb8e1000d003d0071
:10146000080037000006eb00e00f5200e08f5a0042
:10147000e00f5b00e08f5b0006003d006044b800b9
:101480006055b8000402540085825c0006035d00cc
:1014900087835d00aaff0700e00f560006003200b8
:1014a0006022b8006033b8000000520081805a000a
:1014b00002015b0083815b004f0678004f05be0090
:0814c0004f04be00000006000d
:020000040000fa
:1014c8002575000000500000726500007072000071
:1014d800656b0000612000006973000070720000f5
:1014e80065640000210d00000a0000004c6900003e
:1014f8006a650000766900003a20000000200000bc
:10150800636d00000d0a00000044000065730000d0
:101518006e6900003a20000000500000726500006b
:1015280070720000656b00006120000064650000b7
:10153800736e00006f2000002d2000006964000019
:10154800656d0000206c0000696a00006576000087
:101558006f2100000d0a00000050000072650000b5
:1015680070720000656b0000612000006c6900006b
:101578006a650000766f0000202d000020690000d9
:10158800646500006d20000064650000736e000053
:101598006f2100000d0a000000490000646500008a
:1015a8006d20000064650000736e00006f2100006c
:1015b8000d0a000000490000646500006d2000006d
:1015c8006e6100007a610000642100000d0a0000cd
:1015d80000490000646500006d2000006e61000095
:1015e80070720000696a000065640000210d000047
:1015f8000a0000005a610000757300007461000061
:10160800766c00006a6100006d2100000d0a000080
:1016180000410000444300002053000068610000be
:10162800727000003a200000000d00000a0000005f
:101638004c6900006a650000766900003a200000e5
:101648006e6500006d610000206f0000626a000096
:10165800656b0000746100000d0a00000044000082
:10166800657300006e6900003a2000006e65000096
:101678006d610000206f0000626a0000656b000069
:0c168800746100000d0a0000000000006a
:020000040000fa
:101694000200fa00000f78000002eb0014408800fa
:1016a400000000009e02780014408000848f5200e5
:1016b400fcff3e000080fa00000006000400fa006f
:1016c400100798000002eb00040f780001003700b7
:1016d4001e0fe8001e0290006a22b900040278007e
:1016e4009e0f5200faff3e000080fa000000060040
:1016f400849fbe003400f80004002000a401880088
:101704000000fa000002eb00040888001400200026
:1017140024408800044080000402e800044088005b
:10172400144080000402e800144088000540800052
:10173400843e2000848f520004003a000002eb0033
:101744000440880014002000344088008460a9000c
:101754000080fa003400f9004f02be000040060089
:10176400841f78003400f80004002000a4018800dd
:101774000000fa0004148000544088008560a90029
:101784000080fa003400f9004f027800004006009f
:101794000000fa0004042000f4108800c510800042
:1017a400c4ff2f0004826200c410880017e2a8005e
:1017b4001942a8000080fa00000006000200fa00a6
:1017c400000f78000b00370000000000c5108000f7
:1017d4000420200004826200e00f5200fbff3a0064
:1017e4001e027800144278000402fb00d410880022
:1017f4001e0fe8001e02780014427800e04f5200e9
:10180400f1ff3a000080fa00000006000800fa0028
:10181400300798003e029000841f780044a62800f8
:10182400841f78000e007800c0fa0700e487570090
:101834000e007800e1ff07000080fa0000000600b7
:101844000600fa00200798000002eb00040f78005d
:101854000002eb00140798002e029000e10f5200e2
:1018640022003a00e222a9002000200093ff070092
:10187400e222a800a000200090ff0700e222a900b5
:101884000002eb0014079800090037001e029000c4
:101894000402e800140798009e02900004532700f5
:1018a400848f520002003600743e20003c00370052
:1018b4000417800061026200e00f5200f3ff32005f
:1018c4000002eb00040f7800030037001e0fe8004d
:1018d4001000200079ff07000417800061026200f5
:1018e400e00f5200f9ff3a00260037002e02900064
:1018f400e20f520023003a00d1c2a90020002000c8
:101904006eff0700d1c2a800a00020006bff0700f3
:10191400d1c2a9000002eb001407980009003700a7
:101924001e0290000402e800140798009e02900032
:1019340004532700848f520002003600743e2000b6
:1019440017003700a51680000420200004826200de
:10195400e00f5200f2ff32000002eb00040f7800a7
:10196400030037001e0fe8001000200053ff07009b
:10197400a51680000420200004826200e00f5200bb
:10198400f8ff3a009e02780044012000110009008b
:101994008482d800000278006322b900040278002f
:1019a400040078000080fa00000006000a00fa0033
:1019b40030079800410798000042eb004447980024
:1019c400de82a800dea2a900c602a800de22a900c9
:1019d400de02a800cdc2a900d322a8000702070096
:1019e400840107006aff0700c9010700a1e2a800fb
:1019f4000002eb00840888000002eb003408880031
:101a0400940f200064088800840880000440a0002b
:101a14000450a100840888000002eb00240c880014
:101a24000002eb00140c880014092000040c880048
:101a3400240c80000400a1000410a0000420a000d5
:101a4400240c880011e1a800010037000000000008
:101a54004e429000e14f5200c0003a00fb010700e3
:101a6400ff01070064092000040c88002003200003
:101a740007ff070084072000040c880055408000fd
:101a8400c40d2000848f52009a0036005540800017
:101a9400341f2000848f520096003e0070a6280058
:101aa40046ff0700e20107001000200064ff070062
:101ab40000027800040f7800a0a728003fff070069
:101ac4001e00780051ff070030a828003bff0700e4
:101ad400200020005aff0700000278001407980035
:101ae40090a8280035ff07001e00900047ff07005c
:101af40030a8280031ff0700401f2000e4fe070043
:101b0400100020004eff070000027800040f780048
:101b1400200020004aff0700000278001407980004
:101b24001e029000fe0f52001c003e001e027800b0
:101b3400f90f520019003600c9010700440b2000b8
:101b4400040c880020032000d1fe07002408200094
:101b5400040c8800d101070010a9280017ff070012
:101b640040382000cafe0700b1010700b701070092
:101b740060092000c6fe07001000200030ff0700a7
:101b840000027800040f7800200020002cff0700da
:101b94000002780014079800560037001e027800ef
:101ba400f90f52001c003e001e029000f90f520073
:101bb40019003600aa010700440b2000040c880019
:101bc40020032000b2fe070024082000040c880033
:101bd400ad01070010ab2800f8fe070040382000d4
:101be400abfe07009201070098010700600920007e
:101bf400a7fe07001000200011ff07000002780074
:101c0400040f7800200020000dff07000002780078
:101c140014079800370037001e027800f90f5200ad
:101c24001c0036001e029000f90f52001900360005
:101c34008b010700440b2000040c880020032000c3
:101c440093fe070024082000040c88008e0107007e
:101c5400403820008efe070010ad2800d7fe070094
:101c640073010700790107006009200088fe07005e
:101c740010002000f2fe070000027800040f780034
:101c840020002000eefe07000002780014079800f0
:101c9400180037001e027800fa0f520015003e00ab
:101ca4001e029000fa0f520012003e006c01070061
:101cb400440b2000040c88002003200074fe07005d
:101cc40024082000040c88006009200070fe07002e
:101cd4005701070010002000d9fe07000002780019
:101ce400040f780020002000d5fe070000027800d1
:101cf4001407980055408000341f2000848f520040
:101d04001600360055408000349c2000848f520019
:101d140012003e0046010700800c20005cfe070014
:101d24004a010700800c200059fe070051010700fa
:101d3400440b2000040c88002003200054fe0700fc
:101d440014092000040c8800201c200050fe070009
:101d5400f0ad280099fe070041010700c41080007f
:101d640061026200e00f520016003200e4108000ad
:101d740054479800de429000e4c6b30084cf52007a
:101d840006003a00d0ae28008cfe0700d622a80038
:101d940014c0b3004447980031010700de429000ac
:101da400a4c7b30084cf520006003a00e0af280075
:101db40082fe0700d622a9000042eb0044479800a7
:101dc4001b01070034408000e10f52001fff3a005e
:101dd4000002eb0034408800d0b0280077fe0700f2
:101de400544080000400780088fe070090b1280069
:101df40072fe0700643e20009e027800848f520029
:101e040003003600c0b128006cfe0700060037004e
:101e1400a0a7280069fe07001e0078007bfe0700cb
:101e240030a8280065fe07009e029000643e200052
:101e3400848f52000300360030b328005ffe070091
:101e440003ff370090a828005cfe07001e009000e6
:101e54006efe070030a8280058fe0700fcfe37007d
:020000040000fa
:101e6400000800000c00000000000000ac080000a6
:101e74002a00000002000000303132003334350003
:101e840036373800394142004344450046003000ab
:101e9400313233003435360037383900616263003b
:101ea4006465660000286e00756c6c0029000000f3
:101eb4000c080000a0000000020000000100000067
:101ec4000000000000000a00000000000000000004
:101ed400006400000000000000000000e8030000af
:101ee40000000000000010002700000000000000b7
:101ef40000a08600010000000000000040420f0026
:101f0400000000000000800096980000000000001f
:101f14000000e100f50500000000000000ca9a007e
:101f24003b00000000000000e40b5400020000002d
:101f34000000e80076481700000000000010a5002b
:101f4400d4e8000000000000a0724e001809000050
:101f5400000040007a10f3005a0000000080c60020
:101f6400a47e8d000300000000c16f00f2862300f0
:101f7400000000008a5d78004563010000006400f1
:101f8400a7b3b600e00d000000e889000423c700f1
:101f94008a000000fc0800000600000000000000a9
:101fa400d60800002600000002000000fd08000022
:101fb40000fd08000900000000020000ff08000006
:101fc40000ff08000e0201000000000000000000f5
:101fd400000000000602020000000000d608000015
:101fe40002090000020000000200000001000000dd
:041ff40000000000e9
:020000040000fa
:101ff8000000fa000002eb000408880004712200c7
:10200800140888000421a9008460a9008c60a80035
:1020180005e1a8000080fa00000006000000fa00b0
:102028008cc0a90011e1a90084c0a9000080fa00b1
:10203800000006000200fa00000f780084c0a90022
:102048001e0278000442780067426200674262001c
:10205800674262000482fb00670262004822dd00da
:10206800b6048000f58f2f00850263000482720099
:10207800b40488009e027800688262004322de0071
:1020880004427800614262000482fb00610262003f
:102098004622dd0066048000f5fb2f008502630000
:1020a80004827200640488000080fa0000000600c0
:1020b8000400fa00000f7800110798000002eb00f6
:1020c800340888001e029000640888001e02780008
:1020d800840888001061a9000080fa00000006004a
:1020e8000000fa0034088000040078000080fa003c
:1020f800000006000200fa00000f78001e027800b7
:10210800340888000080fa00000006000000fa0089
:10211800a1a2a900041580000480a1000490a100d8
:1021280004158800041580000450a0000460a00075
:102138000470a00004158800a022a80014158000cf
:1021480004d0a00004e0a00004f0a000141588004a
:10215800a342a800141580000420a1000430a100a7
:102168000440a1000450a10014158800a222a9006f
:10217800a202a9002515800004f021000482720043
:1021880024158800a4e2a8002515800004fc2f006f
:1021980004826200f401b30024158800a782a90014
:1021a800a682a900341580000400a1000410a10033
:1021b8000420a1000430a1003415880034158000e3
:1021c8000480a1000490a10004a0a10004b0a10013
:1021d800341588000002eb00441588001400200024
:1021e80054158800a042a8008560a8008d60a8004a
:1021f8000080fa00000006000000fa00c722a900cb
:10220800c742a900c762a900c782a900d202a900d3
:10221800d222a900a922a800a942a800a962a80060
:10222800a982a8000080fa00000006000000fa0059
:10223800cb22a900cb42a900cb82a900cb62a9007e
:102248000080fa00000006000000fa00cb82a90016
:10225800cb62a9000080fa00000006000000fa0026
:10226800cb22a800cb42a9000080fa00000006009b
:102278000000fa00cb22a900cb42a8000080fa0097
:10228800000006000000fa00cb82a800cb62a9007b
:102298000080fa00000006000000fa00cb82a900c6
:0c22a800cb62a8000080fa0000000600d5
:020000040000fa
:0200000401f009
:04000000e5bf000058
:020000040000fa
:0200000401f009
:04000400ff7f00007a
:00000001FF
